:10000000FC7F0020B50F0000D9040000D5040000DB
:1000100000000000000000000000000000000000E0
:10002000000000000000000000000000D1040000FB
:100030000000000000000000CD04000035040000B6
:1000400010B5064C2378002B07D1054B002B02D0AE
:10005000044800E000BF0123237010BD5C000020B5
:100060000000000010170000044B10B5002B03D057
:100070000349044800E000BF10BDC0460000000076
:100080006000002010170000024B187E4007C00FD0
:100090007047C04600080042064A1388012B03D06F
:1000A000C823DB00013BFDD10421034B596101232F
:1000B00013807047000000200044004110B5FFF796
:1000C000EBFFFFF7E1FF0028FBD0074B1A00197E7A
:1000D0004907FCD5598BC90703D4598B890700D42C
:1000E0005B8B108DC0B210BD00080042F8B5002532
:1000F00006000F002C00FFF7E1FF114A1378002BD8
:100100001CD1FF21230A01404B4021020D4C5B0012
:100110001C5B53884C40A4B2002B02D11279002AF8
:1001200006D030700136802F02D1054A013B538042
:100130000135ADB2AF42DED12000F8BD0124FBE7AE
:1001400078000020CC14000010B50400FFF7B6FFC3
:100150002070012010BD0A4A1388002B03D0FA2317
:100160009B01013BFDD10421064B99611388002BB3
:1001700003D0C823DB00013BFDD10023138070476F
:10018000000000200044004110B50400FFF7E3FF29
:10019000064BE4B219001A7ED207FCD5A4B21C8526
:1001A00002230A7E1A42FCD0012010BD0008004242
:1001B0000023F0B52F4D85B007002B70994213D165
:1001C000013364242B714320FFF7DEFFFFF764FF48
:1001D000294EFFF759FF00280AD1002E06D1013C15
:1001E000002CF0D120000DE06980EAE7013EF0E745
:1001F000002EF4D00126FFF761FF2B78002B03D0EF
:100200000020287005B0F0BDFF231840012805D05C
:1002100004282CD0002301202B71F3E7022103A82E
:10022000FFF764FF80213800FFF760FF0190FFF7C0
:1002300045FF000284B2FFF741FF019B2418A4B2DE
:10024000A34209D102AB1B79B34205D1F34302AA01
:100250005279DBB29A4203D01820FFF795FFD9E715
:1002600006200136FFF790FFF6B28037C3E706207D
:10027000F3E7C0467800002000350C000023F0B5FD
:10028000394D85B003900C002B70994253D1013346
:100290002B717F231C4201D080349C43FFF70EFF5B
:1002A0002B78002B03D000232B70FFF707FFC0B281
:1002B000432803D071283CD01528EFD101230193A6
:1002C0000120FFF761FF0198FFF75EFF019B80258A
:1002D000D8430027C0B2FFF757FF039B0293224A7F
:1002E0005388002B02D11679002E06D00299013BCB
:1002F00053800B000E78013302933000FFF744FF68
:100300003B0A5E40194B7600F65A3F027E4036B2F9
:10031000013DB7B2002DE2D1380AFFF735FFF0B248
:10032000FFF732FFFFF7CAFE0F4E3378002B04D0E1
:100330003570002016E06980AAE7FF2318400628E0
:1003400007D1019B803C0133DBB20193039B8033D7
:100350000393002CB4D10420FFF716FFFFF7AEFE85
:100360000120347105B0F0BD78000020CC140000ED
:1003700070B504000D004618B44206D102230549A9
:100380000A7E1A42FCD0280070BD2078FFF7FCFEE0
:100390000134F1E70008004270B5150006000C00BA
:1003A000FFF7D9FE33682900200098478022034BCD
:1003B00012055A616422024BDA8070BD004400418C
:1003C000780000200300F0B50A00184985B0C8681D
:1003D0000C7A0C301900002C1CD0042A1ED11C6889
:1003E0000F263027520004AB9B180B3B9D1A2100AF
:1003F0003140092918D839431970013B24099D421D
:10040000F5D10A240A4B01A90B808B189C70033488
:10041000DC700432FFF7C0FF05B0F0BD022A01D145
:100420001C88DDE71C78DBE73731E5E77800002042
:1004300030780000214A224B117C002908D199789C
:10044000D87809188020C9B2D9701E498002C861C5
:10045000117C0131C9B21174D978F02902D8D97848
:10046000092908D89978494249B299709978D87879
:100470000918C9B2D970117CDB78994203D1802167
:10048000104B8902D961D388002B09D0D388013B56
:100490009BB2D380002B03D180210A4B09059961BF
:1004A000538A002B08D0538A013B9BB25382002B06
:1004B00002D10822044B1A607047C0467800002021
:1004C00000000020004400419844004102BEFEE7C5
:1004D00005BEFEE70DBEFEE70EBEFEE71023024995
:1004E000CA681A42FCD0704700080040024A53789C
:1004F0005BB2002BFBDB7047000C0040074AFF306B
:1005000053699B0B9B035361022303728279823BE5
:1005100013438371037A9B07FCD57047280300209F
:1005200010220823F0B58FB000AFBA18D1180B0015
:10053000BD4A31CA31C331CA31C311CA11C3BB4A22
:10054000BB4C93685B035B0F9B005B5863619168D6
:10055000FA6089B24B43A36100237A21E361631CF3
:10056000D977FFF799FDE36840211B69B1489847A7
:10057000002804D00822B04B1A6064236382AD4B7C
:100580006066A3660023E366E36E626E9342E8D280
:10059000A36E1B78FF2B56D0232B00D0CAE1237A01
:1005A000002B05D0E06802220C30A449FFF7F4FECE
:1005B000601CC37F532B4FD1636EE56EAB4219D9DC
:1005C000A26E0135561C226FA666E5665B1B934240
:1005D00040D26367636F31001A00E069BB6000F0CE
:1005E00017FFBB683A7AED18F61823007833E566F2
:1005F000A6661A70E36E013BE366A36E013BA36639
:10060000FFF74AFD230078331B78216F8B420BD212
:10061000C91AE368E0699B699847002804D008225A
:10062000854B1A6064236382C0467A22631CDA77A2
:1006300000232367237A002B05D0E06801220C30C9
:100640007F49FFF7A9FEE36E0133E366A36E013332
:10065000A36699E76267BDE7522B0BD1E368216F70
:100660005B69E06998478022764B12055A616423E2
:10067000E380DAE74F2B03D1236FE2691370D4E7ED
:10068000482B03D1236FE2691380CEE7572B03D1A8
:10069000E369226F1A60C8E76F2B04D10121E0697A
:1006A000FFF790FEC1E7682B05D1E3696F301B8827
:1006B00002212367F4E7772B05D1E3696F301B68CC
:1006C00004212367ECE7472B16D1236F72B6EFF3B3
:1006D0000882E2671A6882F308885B681847E36F4C
:1006E00083F3088862B6584B1B78002B9DD0E368D3
:1006F00006201B68984798E7542B08D1533B237278
:100700000222E0684D490C30FFF746FE8DE74E2B84
:100710000BD1237A002B05D1E06802220C30474927
:10072000FFF73AFE002323727FE7562B55D1E0688E
:10073000012246490C30FFF72FFE3B49E06820318B
:1007400003220C30FFF728FE414DE068012229000A
:100750000C30FFF721FE3449E06824310D220C30C3
:10076000FFF71AFEE068012229000C30FFF714FEA3
:10077000002301201A0084463649E36636488E5C21
:100780008018002E23D1002B00D0E266A066E0681E
:10079000E26E0C30FFF700FEE068012229000C3009
:1007A000FFF7FAFD002301201A0084462B49E36677
:1007B0004E1C8D5CB018002D0CD1002B00D0E266D1
:1007C000A066E068E26E0C30FFF7E6FD98E70132C4
:1007D0006346D3E701326346EBE7582B16D16269D3
:1007E000236FA1691E4892008B4204D3E068032264
:1007F0000C301C4988E7FE685D08F561FD682880BB
:10080000FD682D7DED07FBD59B18EDE7592B5CD1DD
:10081000236FE1690C4A002B28D15160E068032264
:100820000C30114970E7C0464814000000400041F8
:10083000780000209900002094440041F016000048
:10084000F316000000440041F8000020CC16000020
:10085000CE160000D0160000D1160000DC160000F5
:1008600002A5FFFFE5160000E9160000802056688B
:10087000FA689B0852688243F8684260626992088D
:100880007A603E4A9446002BC8D06046FA681080D1
:10089000FA68127DD207FBD50D000022BE60786891
:1008A0002900BE68824201D09A4208D1F868344DCE
:1008B0000580F868007DC007FBD59B1AE3E7B868A0
:1008C000013202C8B86002C5E9E75A2B00D0ACE695
:1008D0000025E369226F2B489918994220D1E068DE
:1008E00001220C302849FFF757FD07230F222A4029
:1008F000D0B201002D093031092A00DD0731102264
:10090000BA18D154013BF1D21023E0680822F9183B
:100910000C30FFF741FDE06803220C301B49F3E681
:100920001E782A0A72405200125A2D025540ADB26A
:100930000133D2E71A00303AD1B2092904D8236F23
:100940001B01134323677EE61A00413A052A03D8A8
:10095000226F373B1201F4E71A00613A052A03D8E7
:10096000226F573B1201ECE700222C2B03D1236F9F
:10097000E361226767E6611CCB77FAE744A5FFFFD6
:1009800004A5FFFFCC140000ED160000EF160000D8
:10099000F8B51A4F06003B7A08001400002B12D15C
:1009A000174B184A18491A645A6C920B92035A64EE
:1009B0005A6C0A405A64A22240235200B15C0B4395
:1009C000B35401233B724825FF35735DDB07DB0F12
:1009D00012D00B4A536C9B049B0C9C4202D9546C62
:1009E000A404A40C2200074900F012FD0123735552
:1009F00000233B722000F8BD1C00FBE7F80000203C
:100A000028030020E8020020FF3F00F013B56B46EA
:100A1000DC1D044B01222100D868FFF7B9FF2078C4
:100A200016BDC046F8000020F7B5009001201C4D0F
:100A30001C005B0116000193EA18536910325B0039
:100A40005B0F03339840B04221D8802350681B06C7
:100A5000034353606301ED1829616B69B1049B0B7B
:100A6000890C9B030B436B616B690E4908340B4087
:100A70006B61009B64011C190223E3716279823B64
:100A800013436371E3799B07FCD53000FEBD064B31
:100A9000A701FF183200380000F0BAFC3900D9E78E
:100AA00028030020FF3F00F02802002010B50C00B2
:100AB0000A00010003480123C068FFF7B5FF2000CA
:100AC00010BDC046F8000020012307B5019004487E
:100AD0001A0001A9C068FFF7A7FF01200EBDC0469C
:100AE000F800002070B50500C0B0080016000C002A
:100AF00000F097FC6B464000023018706A460323F2
:100B000076085370023B5A1EA15C5A00002901D09E
:100B10009E4206DC002369462800FFF785FF40B0AF
:100B200070BD684601338152EDE7F7B505680822CC
:100B30002900AB8B06001340FF31002B27D0802308
:100B40004020C024AA830932AB724A7088714B716D
:100B5000B24BB34D5A68A4052A4022435A605A69E1
:100B60002A401443AF4A5C611A60AF4AAF4C1A6125
:100B70005A6814408022920222435A605A68920BAB
:100B800092035A600023487133713079FEBD102002
:100B90000A7A0242F9D0A34AA54C17780872277640
:100BA0005778677697786783678BBC466046D778B7
:100BB0003F02074367831779A7835779A08B3F02CA
:100BC0000743A7839779E783D279E78B12023A43E9
:100BD0004027E2834F71627E207E120202439548D5
:100BE000824200D1F1E026DC8020400082421CD00D
:100BF0000BDC812A04D0822A00D1BEE0802A14D1E5
:100C000021002384203102224EE081235B009A429E
:100C100000D125E100DAF6E0FF33FF339A4200D13C
:100C2000CEE0854B9A4200D1EDE02023FF35AA7932
:100C30001343AB71A9E7902109018A426CD017DCFC
:100C4000D021C9008A4222D0882109018A4200D1DC
:100C500090E0A023DB009A42E7D12800FFF74EFC8A
:100C60008023628B5B4213433268DBB293728CE762
:100C7000724B9A4200D1C6E0D7DD714B9A4200D147
:100C800049E1704B9A42D0D1638B7371BBE0638BA7
:100C90001B0A012B0CD11222E38B934201D8E28B69
:100CA00092B20023684934312800FFF7BDFE6CE79B
:100CB000638B1B0A022B09D14322E38B934201D899
:100CC000E28B92B2614900230431EDE7638B1B0A8A
:100CD000032BAAD1638BDBB2012B16D0002B05D0DE
:100CE000022BA2D1E28B5A49D2B211E0564904221A
:100CF000463101A800F08CFB0422E38B934201D81B
:100D0000E28B92B2002301A9CEE7E28B5149D2B225
:100D10002800FFF7E7FE38E7638B28003371FFF701
:100D2000EDFBA0230322C0215B00EA543B4B3C486F
:100D30005A6C890502400A435A644622FF32AF5476
:100D4000454A30241A6490225200AC545A6B024037
:100D500011439222596380215200A9543F4A1A63D9
:100D6000B0225200AF545A6F10405867B2235B0054
:100D7000E9540AE7311D012296E750220F2023840F
:100D8000A38B1340E21CD377A38B0340A383A38BD5
:100D9000032B15D8D37F002B0BD0A38B08335B011B
:100DA000EB189B799B062100DB0F23842031002365
:100DB00029E7A38B08335B01EB189B79DB06F2E78D
:100DC00020238A7913438B71DFE680220F21A38BC6
:100DD0001340E21CD377A38B0B40A383638B002BC0
:100DE00000D022E7A38B002B00D11EE7A38B032B9F
:100DF00000D91AE7D37F002B09D02022A38B083318
:100E00005B01EB185A712800FFF778FBBDE6A38B56
:100E1000102208335B01EB18F4E7C04628030020DA
:100E2000FFFFFF8FA802002028020020FF3F00F0F4
:100E3000F800002002030000010300002120000050
:100E4000A121000021220000481400000000002021
:100E500000170000F5160000E802002068020020DC
:100E60008022A38B1340E21CD3770F22A38B134065
:100E7000A383638B002B00D0D7E6A38B002B00D17C
:100E8000D3E6A38B032B00D9CFE6E31CDB7F002B3B
:100E900020D0A38B08335B01EB189B799B06B2D55E
:100EA000A38B113208335B01EB181A71A38B083343
:100EB0005B01EB18DB795B06A5D5A38B20320833E9
:100EC0005B01EB18DA71A38B3E3A08335B01EB1838
:100ED0001A7198E7A38B08335B01EB189B79DB064B
:100EE00091D51022A38B08335B01EB181A71A38BE9
:100EF00008335B01EB18DB799B0600D483E7A38BF7
:100F0000921808335B01EB18DA71A38B1F3A083390
:100F10005B01EB18DCE70822E38B934201D8E28BFC
:100F200092B2024900234831BEE6C04600000020CC
:100F3000F8B50B4F060038000C300D00FFF7F5FD3B
:100F40002C00002808D1050008E022003100F868D4
:100F5000FFF71EFD241A3618002CF6D12800F8BD24
:100F6000F800002070B5084C050020000C300E0081
:100F7000FFF7DBFD03000020834204D0320029008C
:100F8000E068FFF705FD70BDF800002010B5084CC3
:100F900020000C30FFF7C9FD03000020834205D07C
:100FA0004823E268FF33D05CC007C00F10BDC046C5
:100FB000F80000200D4A0E4870B5824206D10D4A55
:100FC0000D4B002193420DD100F01AF80B4C002379
:100FD0009442F4D0D1188842F1D9E55804330D6019
:100FE000F8E702C39342FCD3EEE7C04600000020BE
:100FF0005C000020A80300205C0000201417000003
:10100000F0B5D64A85B0136800AF01331DD0D44B7C
:10101000D449D0B25962002817D1D34BD3491B7899
:10102000DB07DB0F0BD00860136883F30888FF230E
:1010300011009943CE4B99605368184705E00C683E
:10104000CC48844200D070E10B601E21CA4ACB4DCF
:1010500053688B431C390B435360C94BAB82AB8A3B
:101060000B43AB82F960EB68FA681342FBD00123B3
:10107000C44C8026A360FFF739FAC34B6360FFF7C7
:1010800035FA8223DB016380FFF730FAAB8CB34380
:10109000AB84FFF723FABD4BEB62FFF71FFAAA8C74
:1010A000BB4B1343AB84FFF719FAAB8CFA681A43B6
:1010B000AA844022FC60E9683142FCD0E968114210
:1010C000F9D00025C026FFF709FAFB6836069D60B7
:1010D000FFF70CFAAF4BFA685360FFF707FAAE4917
:1010E000AE4BA3484B60036A1B021B0A33430362E7
:1010F00007238D600B6062B60122A94E022335786A
:10110000154335700F26A74D2C78B4432C702C78DE
:101110001C432C70A44C2378134323702B78A34CCE
:1011200033402B7020232E78FA6833432B7004232E
:10113000256A2B4323629E4B5380984B7860B9609D
:101140003B60FB685B785BB2002BFADB994B1A00C3
:10115000D9698907FCD40220196881431960D369D1
:10116000DB07FCD4012311680B4313601368DB0712
:10117000FCD4D369DB07FCD4D3699B07F9D48E4B2D
:101180001360D3695B07FCD4C0239B0253608B4B75
:101190009381D3699B07DB0FFBD102211068704D4F
:1011A000014311602A00283213702A00293213707B
:1011B0002A002A3213702A002B3213702A002C3294
:1011C00013707F4A7F4E13700433B360FEF764FFE1
:1011D0002023E2697C491343E36101230A781A431F
:1011E0000A700F21794A1078884310701078040033
:1011F0000620204310707648047823430370137848
:101200000B401370602311780B431370714BFA6815
:101210005380FB685B785BB2002BFADB01236E4CDA
:10122000227813432370A378DB07FCD41F216B4A79
:1012300013689446580B0840884200D10520238D3E
:1012400008401A00664B8001134003432385634620
:101250001B689B0C0B401F2B00D1023B1F20218DD4
:10126000034081430B432385634607221B68FA60D2
:10127000DB0D1340934200D10323F968228D0B400C
:1012800058491B030A4013437F222385237856487D
:101290001340237004232278002113430C2223706F
:1012A000606223899343238123890B3A93432381EB
:1012B0007F3200F0A5F800224C4B2A826B6102239A
:1012C000EC6021780B43237080239B02B3600823DA
:1012D00047490B6047490B6080231B05B3603968A1
:1012E000B361BB685960C0217B6809061B6A1B0299
:1012F0001B0A0B4379680B62BB689A60BB68FA688B
:101300001A6001231E002C002D3428006B690C305C
:101310009847002800D026702378002B0CD0364B3D
:10132000274A4C33D360FFF7FBF8344B0860013B8E
:10133000002BFCD10B6077E62378002BE5D1FEF77C
:10134000A3FE0028DFD0FEF7B9FE2328DBD12A4B0D
:101350001B4A6833D36001232B70E4E700200000B0
:10136000F80000200420000038040040FC7F00202A
:1013700000ED00E0358173070040004100080040A7
:101380000C060000000C004001050100B805FF7DBF
:10139000040A00000007030010E000E0E70300007B
:1013A0004A440041354400414B44004100040040A0
:1013B0001440000000080042040031402AF6FFFFFC
:1013C0007800002000440041584400413C44004162
:1013D0005944004106400000005000412460800054
:1013E0003FF8FFFFFF8FFFFF280300202B0B0000BB
:1013F00088440041984400414814000048E8010036
:1014000003001218934200D1704719700133F9E7B5
:10141000002310B59A4200D110BDCC5CC4540133F6
:10142000F8E70023C25C0133002AFBD1581E704745
:10143000F8B5C046F8BC08BC9E467047F8B5C04633
:10144000F8BC08BC9E467047080000001000000071
:1014500020000000400000008000000000010000AB
:101460000002000000040000322E30005B41726474
:1014700075696E6F3A58595A5D00000012010002FA
:1014800002000040D804D9EC00020102000104036C
:1014900009040000C90A00000D0A00008D0F0000B9
:1014A000AD0A0000650F0000AD0A0000310F00001A
:1014B00089010000BD0000008900000071030000E8
:1014C000490100007D020000B10100000000211070
:1014D000422063308440A550C660E770088129919E
:1014E0004AA16BB18CC1ADD1CEE1EFF13112100246
:1014F00073325222B5529442F772D66239931883EE
:101500007BB35AA3BDD39CC3FFF3DEE36224433411
:1015100020040114E664C774A44485546AA54BB53D
:1015200028850995EEE5CFF5ACC58DD553367226E5
:1015300011163006D776F6669556B4465BB77AA78D
:1015400019973887DFF7FEE79DD7BCC7C448E55831
:101550008668A7784008611802282338CCC9EDD9DD
:101560008EE9AFF9488969990AA92BB9F55AD44A85
:10157000B77A966A711A500A333A122AFDDBDCCB2D
:10158000BFFB9EEB799B588B3BBB1AABA66C877C51
:10159000E44CC55C222C033C600C411CAEED8FFD7D
:1015A000ECCDCDDD2AAD0BBD688D499D977EB66E25
:1015B000D55EF44E133E322E511E700E9FFFBEEFCD
:1015C000DDDFFCCF1BBF3AAF599F788F8891A9818F
:1015D000CAB1EBA10CD12DC14EF16FE18010A10079
:1015E000C230E3200450254046706760B983989369
:1015F000FBA3DAB33DC31CD37FE35EF3B1029012C9
:10160000F322D2323542145277625672EAB5CBA534
:10161000A89589856EF54FE52CD50DC5E234C32418
:10162000A01481046674476424540544DBA7FAB708
:101630009987B8975FE77EF71DC73CD7D326F23668
:101640009106B01657667676154634564CD96DC954
:101650000EF92FE9C899E9898AB9ABA944586548B8
:1016600006782768C018E1088238A3287DCB5CDBA8
:101670003FEB1EFBF98BD89BBBAB9ABB754A545A08
:10168000376A167AF10AD01AB32A923A2EFD0FED74
:101690006CDD4DCDAABD8BADE89DC98D267C076C58
:1016A000645C454CA23C832CE01CC10C1FEF3EFF48
:1016B0005DCF7CDF9BAFBABFD98FF89F176E367EA8
:1016C000554E745E932EB23ED10EF01E7600200071
:1016D0004F637420313220323032300031393A31A8
:1016E000333A343100580A0D00590A0D005A0023CC
:1016F0000A0D003E00736D6172746D652E494F00D6
:101700004172616E63696E6F204D69676E6F6E0026
:0417100000000000D5
:10171400010001140902430002010080320904009F
:101724000001020200000524001001042402000547
:10173400240600010524010001070583030800FFB6
:1017440009040100020A00000007058102400000AC
:10175400070502024000000000C20100000008006A
:0C176400010000006900000041000000CE
:0400000300000FB535
:00000001FF
